:100000000C942A000C9447000C9447000C94470071
:100010000C9447000C9447000C9447000C94470044
:100020000C9447000C9447000C9447000C94470034
:100030000C9447000C94FD030C9447000C94D403DB
:100040000C9447000C9447000C9447000C94470014
:100050000C94470011241FBECFE5D8E0DEBFCDBF12
:1000600010E0A0E6B0E0EEEFF9E002C005900D92DE
:10007000A63FB107D9F721E0A6EFB0E001C01D927D
:10008000A333B207E1F70E94C2000C94FD040C9464
:100090000000FC010FB6F89460912F0170913001BF
:1000A00080913101909132010FBE309721F0608331
:1000B00071838283938308950E94CD038D3061F410
:1000C000E091F900F0E0E95FFE4F108281E080935B
:1000D000F8000E94BB010895883051F4E091F900C6
:1000E000E150E093F900F0E0E95FFE4F10820895DF
:1000F000E091F900F0E0E95FFE4F80838091F90024
:100100008F5F8093F90008950F931F93CF93DF9330
:100110008B019C01FA018CE090E0DF01A80FB91F70
:10012000B901A8014F70552766277727EA01C05506
:10013000DF4F48814C930197689413F836952795C3
:10014000179507951694D1F701151105210531056D
:1001500021F720E030E00AC0DF01A20FB31FEF015A
:10016000C80FD91F48814C932F5F3F4F01968D30A8
:10017000910594F3E20FF31F1082DF91CF911F914D
:100180000F91089541E067E082E00E94E10240E0C3
:1001900067E082E00E944E030E949B0281EC90E0A7
:1001A0000E9464028CE590E00E94CF0387E690E015
:1001B0000E94BB0380E090E00E9449000E94770407
:1001C0000E947204BC01990F880B990B4BE151E01E
:1001D0000E9484008091F8008130E1F71092F800CD
:1001E00044E050E067EC70E087E091E00E94820418
:1001F000892B09F05BC06BE171E084E690E00E941E
:100200008F0484E690E00E94640254E041C0252FF0
:1002100030E0F901EC59FF4F80818A3330F0F90169
:10022000EC59FF4F8753808305C0F901EC59FF4F0C
:1002300080538083C9010497FC01E759FF4F408137
:100240004A3330F0FC01E759FF4F4753408305C064
:10025000FC01E759FF4F40534083F901EC59FF4F30
:100260003081FC01E759FF4F20812327FC01E25038
:10027000FF4F20832A3030F0FC01E250FF4F295C11
:10028000208305C0FC01E250FF4F205D20835F5FAB
:100290005C3008F4BCCF1092060160E081E00E945F
:1002A00045028EEF90E00E9464024DC048E050E0AD
:1002B0006CEC70E087E091E00E948204892B99F455
:1002C0008091F700813051F485ED90E00E94640246
:1002D00041E067E082E00E944E0335C08EED90E081
:1002E0000E94640230C044E050E065EE70E087E0B8
:1002F00091E00E948204892B99F025C0822F90E022
:10030000FC01E650FF4F3081FC01E95FFE4F808128
:10031000381721F081E08093F60005C02F5F01C0FF
:1003200024E02C3058F38091F600811108C08AEE49
:1003300090E00E94640281E08093F70004C08FEE99
:1003400090E00E9464021092F90044CF41E062E024
:1003500080E00E944E0385E08A95F1F7000040E0BE
:1003600062E080E00E944E038FE39FE10197F1F786
:1003700000C000000895CF93C82F40E063E080E004
:100380000E944E03C4FB442740F960E081E00E94D4
:100390004E03C5FB442740F961E081E00E944E0313
:1003A000C6FB442740F962E081E00E944E034C2FD7
:1003B000441F4427441F64E081E00E944E030E94D2
:1003C000A6014C2F417060E081E00E944E03C1FB0A
:1003D000442740F961E081E00E944E03C2FB4427BC
:1003E00040F962E081E00E944E03C3FB442740F9DC
:1003F00064E081E00E944E030E94A601CF9108951F
:10040000CF93C82F41E063E080E00E944E03C4FB1D
:10041000442740F960E081E00E944E03C5FB442779
:1004200040F961E081E00E944E03C6FB442740F999
:1004300062E081E00E944E034C2F441F4427441F7A
:1004400064E081E00E944E030E94A6014C2F41709F
:1004500060E081E00E944E03C1FB442740F961E067
:1004600081E00E944E03C2FB442740F962E081E034
:100470000E944E03C3FB442740F964E081E00E94E0
:100480004E030E94A601CF910895813059F028F0C3
:10049000823069F0833081F0089580E8860F0E94F1
:1004A000BB01089580EC860F0E94BB01089584E98A
:1004B000860F0E94BB01089584ED860F0E94BB0148
:1004C00008950E9400020895CF93DF93EC0103C0CA
:1004D0000E946102219688818111FACFDF91CF912C
:1004E00008950F931F93CF93DF93D0E01DC00D2F7E
:1004F00010E0C8010896880F880F880F0E94BB0182
:10050000C0E00FC0F801EE0FFF1FEE0FFF1FEE0F50
:10051000FF1FE059FF4FEC0FF11D80810E94610227
:10052000CF5FC83078F3DF5FD83008F3DF91CF9129
:100530001F910F91089541E063E080E00E94E10285
:1005400041E062E080E00E94E10241E060E081E0A1
:100550000E94E10241E061E081E00E94E10241E0AD
:1005600062E081E00E94E10241E064E081E00E94FB
:10057000E1028FE59AEE0197F1F700C0000083E0F9
:100580000E94BB018FE19EE40197F1F700C00000DB
:1005900083E00E94BB018FE891E00197F1F700C072
:1005A000000083E00E94BB0182E00E94BB0188E260
:1005B0000E94BB010E94710260E080E00E9445023F
:1005C0000895813001F130F08230B1F1833009F4C7
:1005D0004CC00895413059F42AB381E090E002C044
:1005E000880F991F6A95E2F7822B8ABB08952AB378
:1005F00081E090E002C0880F991F6A95E2F780952C
:1006000082238ABB0895413059F427B381E090E0FA
:1006100002C0880F991F6A95E2F7822B87BB089565
:1006200027B381E090E002C0880F991F6A95E2F736
:100630008095822387BB0895413059F424B381E02B
:1006400090E002C0880F991F6A95E2F7822B84BB65
:10065000089524B381E090E002C0880F991F6A9545
:10066000E2F78095822384BB0895413059F421B389
:1006700081E090E002C0880F991F6A95E2F7822B13
:1006800081BB089521B381E090E002C0880F991FDB
:100690006A95E2F78095822381BB0895813001F14C
:1006A00030F08230B1F1833009F44CC0089541112B
:1006B0000CC02BB381E090E002C0880F991F6A95AF
:1006C000E2F7809582238BBB08952BB381E090E005
:1006D00002C0880F991F6A95E2F7822B8BBB0895A1
:1006E00041110CC028B381E090E002C0880F991F2F
:1006F0006A95E2F78095822388BB089528B381E04C
:1007000090E002C0880F991F6A95E2F7822B88BBA0
:10071000089541110CC025B381E090E002C0880F1C
:10072000991F6A95E2F78095822385BB089525B3CA
:1007300081E090E002C0880F991F6A95E2F7822B52
:1007400085BB089541110CC022B381E090E002C046
:10075000880F991F6A95E2F78095822382BB0895DE
:1007600022B381E090E002C0880F991F6A95E2F7FA
:10077000822B82BB089590BD89B98AB180618AB904
:100780008AB188608AB980B5866A80BD8AB180687E
:100790008AB98AB180648AB908958CB1089590931A
:1007A000FB008093FA0008951F920F920FB60F92EC
:1007B00011242F933F934F935F936F937F938F9366
:1007C0009F93AF93BF93EF93FF93E091FC00F09161
:1007D000FD00309709F00995FF91EF91BF91AF911E
:1007E0009F918F917F916F915F914F913F912F9149
:1007F0000F900FBE0F901F9018951F920F920FB67B
:100800000F9211242F933F934F935F936F937F9396
:100810008F939F93AF93BF93EF93FF93E091FA0071
:10082000F091FB00309709F00995FF91EF91BF918E
:10083000AF919F918F917F916F915F914F913F9178
:100840002F910F900FBE0F901F9018958F929F922F
:10085000AF92BF92CF92DF92EF92FF92CF93DF934E
:10086000EC01688179818A819B816115710581051F
:10087000910521F464E279ED8BE597E02DE133EF0A
:1008800041E050E00E949A0449015A019B01AC01E9
:10089000A7EAB1E40E94B9046B017C01ACEEB4EFAD
:1008A000A50194010E94C704DC01CB018C0D9D1DA4
:1008B000AE1DBF1DB7FF03C00197A109B0488883D3
:1008C0009983AA83BB839F77DF91CF91FF90EF90AD
:1008D000DF90CF90BF90AF909F908F9008950E942F
:1008E0002604089580E690E00E9426040895A0E082
:1008F000B0E08093600090936100A0936200B09399
:1009000063000895FB01DC0104C08D910190801902
:1009100021F441505040C8F7881B990B0895FB0102
:10092000DC010D900020E9F7119701900D92002055
:10093000E1F70895052E97FB1EF400940E94B10480
:1009400057FD07D00E94CC0407FC03D04EF40C9452
:10095000B10450954095309521953F4F4F4F5F4FD3
:10096000089590958095709561957F4F8F4F9F4F1B
:1009700008950E94EE04A59F900DB49F900DA49F32
:10098000800D911D11240895B7FF0C94B9040E94A5
:10099000B904821B930B0895A1E21A2EAA1BBB1B5C
:1009A000FD010DC0AA1FBB1FEE1FFF1FA217B3073B
:1009B000E407F50720F0A21BB30BE40BF50B661F51
:1009C000771F881F991F1A9469F760957095809515
:1009D00090959B01AC01BD01CF010895A29FB0018C
:1009E000B39FC001A39F700D811D1124911DB29F63
:0E09F000700D811D1124911D0895F894FFCF04
:1009FE0001000000363730310032353038393900D9
:100A0E000A1F1F1F1F0E0400041F11111111111FA9
:100A1E00041F111111111F1F041F1111111F1F1F70
:100A2E00041F11111F1F1F1F041F111F1F1F1F1F28
:100A3E00041F1F1F1F1F1F1F000001010505151595
:100A4E0030313233343536373839414243444546F6
:100A5E000048656C6C6F0032373031003331303105
:100A6E00414130300037313031414130300037466E
:100A7E0033313335003237303200363730320037CB
:060A8E004632373335004B
:00000001FF
