:100000000C942A000C9447000C9447000C94470071
:100010000C9447000C9447000C9447000C94470044
:100020000C9447000C9447000C9447000C94470034
:100030000C9447000C94F9030C9447000C94D003E3
:100040000C9447000C9447000C9447000C94470014
:100050000C94470011241FBECFE5D8E0DEBFCDBF12
:1000600010E0A0E6B0E0E6EFF9E002C005900D92E6
:10007000A03FB107D9F721E0A0EFB0E001C01D9289
:10008000AD32B207E1F70E94C2000C94F9040C945F
:100090000000FC010FB6F8946091290170912A01CB
:1000A00080912B0190912C010FBE309721F060833D
:1000B00071838283938308950E94C9038D3061F414
:1000C000E091F300F0E0EF5FFE4F108281E080935B
:1000D000F2000E94B7010895883051F4E091F300D6
:1000E000E150E093F300F0E0EF5FFE4F10820895DF
:1000F000E091F300F0E0EF5FFE4F80838091F3002A
:100100008F5F8093F30008950F931F93CF93DF9336
:100110008B019C01FA018CE090E0DF01A80FB91F70
:10012000B901A8014F70552766277727EA01C05506
:10013000DF4F48814C930197689413F836952795C3
:10014000179507951694D1F701151105210531056D
:1001500021F720E030E00AC0DF01A20FB31FEF015A
:10016000C80FD91F48814C932F5F3F4F01968D30A8
:10017000910594F3E20FF31F1082DF91CF911F914D
:100180000F91089541E067E082E00E94DD0240E0C7
:1001900067E082E00E944A030E9497028CE590E0AB
:1001A0000E94CB0387E690E00E94B70380E090E0D6
:1001B0000E9449000E9473040E946E04BC01990FC2
:1001C000880B990B45E151E00E9484008091F20078
:1001D0008130E1F71092F20044E050E061EC70E011
:1001E00081E091E00E947E04892B09F05BC065E10B
:1001F00071E084E690E00E948B0484E690E00E9427
:10020000600254E041C0252F30E0F901EC59FF4F66
:1002100080818A3330F0F901EC59FF4F8753808396
:1002200005C0F901EC59FF4F80538083C901049741
:10023000FC01E759FF4F40814A3330F0FC01E75998
:10024000FF4F4753408305C0FC01E759FF4F405320
:100250004083F901EC59FF4F3081FC01E759FF4F12
:1002600020812327FC01E850FF4F20832A3030F003
:10027000FC01E850FF4F295C208305C0FC01E850D9
:10028000FF4F205D20835F5F5C3008F4BCCF10928D
:10029000000160E081E00E94410288EF90E00E944E
:1002A00060024DC048E050E066EC70E081E091E013
:1002B0000E947E04892B99F48091F100813051F4E1
:1002C0008FEC90E00E94600241E067E082E00E94D3
:1002D0004A0335C088ED90E00E94600230C044E0DF
:1002E00050E06FED70E081E091E00E947E04892B88
:1002F00099F025C0822F90E0FC01EC50FF4F308137
:10030000FC01EF5FFE4F8081381721F081E0809380
:10031000F00005C02F5F01C024E02C3058F380911D
:10032000F000811108C084EE90E00E94600281E03C
:100330008093F10004C089EE90E00E946002109268
:10034000F30044CF41E062E080E00E944A0385E090
:100350008A95F1F7000040E062E080E00E944A03E5
:100360008FE39FE10197F1F700C000000895CF935C
:10037000C82F40E063E080E00E944A03C4FB4427AA
:1003800040F960E081E00E944A03C5FB442740F940
:1003900061E081E00E944A03C6FB442740F962E025
:1003A00081E00E944A034C2F441F4427441F64E00D
:1003B00081E00E944A030E94A2014C2F417060E03C
:1003C00081E00E944A03C1FB442740F961E081E0DB
:1003D0000E944A03C2FB442740F962E081E00E9488
:1003E0004A03C3FB442740F964E081E00E944A03CA
:1003F0000E94A201CF910895CF93C82F41E063E0FE
:1004000080E00E944A03C4FB442740F960E081E099
:100410000E944A03C5FB442740F961E081E00E9445
:100420004A03C6FB442740F962E081E00E944A0388
:100430004C2F441F4427441F64E081E00E944A037C
:100440000E94A2014C2F417060E081E00E944A03AB
:10045000C1FB442740F961E081E00E944A03C2FBEE
:10046000442740F962E081E00E944A03C3FB44272D
:1004700040F964E081E00E944A030E94A201CF910A
:100480000895813059F028F0823069F0833081F08E
:10049000089580E8860F0E94B701089580EC860FCA
:1004A0000E94B701089584E9860F0E94B70108955C
:1004B00084ED860F0E94B70108950E94FC01089503
:1004C000CF93DF93EC0103C00E945D0221968881E7
:1004D0008111FACFDF91CF9108950F931F93CF939E
:1004E000DF93D0E01DC00D2F10E0C8010896880FE3
:1004F000880F880F0E94B701C0E00FC0F801EE0F0F
:10050000FF1FEE0FFF1FEE0FFF1FE059FF4FEC0F15
:10051000F11D80810E945D02CF5FC83078F3DF5FFC
:10052000D83008F3DF91CF911F910F91089541E0EA
:1005300063E080E00E94DD0241E062E080E00E9432
:10054000DD0241E060E081E00E94DD0241E061E027
:1005500081E00E94DD0241E062E081E00E94DD0274
:1005600041E064E081E00E94DD028FE59AEE0197B0
:10057000F1F700C0000083E00E94B7018FE19EE424
:100580000197F1F700C0000083E00E94B7018FE8F7
:1005900091E00197F1F700C0000083E00E94B701ED
:1005A00082E00E94B70188E20E94B7010E946D02BA
:1005B00060E080E00E9441020895813001F130F056
:1005C0008230B1F1833009F44CC00895413059F4C0
:1005D0002AB381E090E002C0880F991F6A95E2F784
:1005E000822B8ABB08952AB381E090E002C0880F75
:1005F000991F6A95E2F7809582238ABB089541305E
:1006000059F427B381E090E002C0880F991F6A95E2
:10061000E2F7822B87BB089527B381E090E002C008
:10062000880F991F6A95E2F78095822387BB08950A
:10063000413059F424B381E090E002C0880F991F43
:100640006A95E2F7822B84BB089524B381E090E0A1
:1006500002C0880F991F6A95E2F78095822384BBB8
:100660000895413059F421B381E090E002C0880F31
:10067000991F6A95E2F7822B81BB089521B381E02F
:1006800090E002C0880F991F6A95E2F78095822357
:1006900081BB0895813001F130F08230B1F18330B7
:1006A00009F44CC0089541110CC02BB381E090E0D7
:1006B00002C0880F991F6A95E2F7809582238BBB51
:1006C00008952BB381E090E002C0880F991F6A95CE
:1006D000E2F7822B8BBB089541110CC028B381E057
:1006E00090E002C0880F991F6A95E2F780958223F7
:1006F00088BB089528B381E090E002C0880F991F5D
:100700006A95E2F7822B88BB089541110CC025B38E
:1007100081E090E002C0880F991F6A95E2F780950A
:10072000822385BB089525B381E090E002C0880F45
:10073000991F6A95E2F7822B85BB089541110CC081
:1007400022B381E090E002C0880F991F6A95E2F71A
:100750008095822382BB089522B381E090E002C09D
:10076000880F991F6A95E2F7822B82BB089590BD8E
:1007700089B98AB180618AB98AB188608AB980B53D
:10078000866A80BD8AB180688AB98AB180648AB974
:1007900008958CB108959093F5008093F400089526
:1007A0001F920F920FB60F9211242F933F934F93E6
:1007B0005F936F937F938F939F93AF93BF93EF93C9
:1007C000FF93E091F600F091F700309709F009955A
:1007D000FF91EF91BF91AF919F918F917F916F9119
:1007E0005F914F913F912F910F900FBE0F901F90EF
:1007F00018951F920F920FB60F9211242F933F93CB
:100800004F935F936F937F938F939F93AF93BF9318
:10081000EF93FF93E091F400F091F500309709F029
:100820000995FF91EF91BF91AF919F918F917F912A
:100830006F915F914F913F912F910F900FBE0F904D
:100840001F9018958F929F92AF92BF92CF92DF9296
:10085000EF92FF92CF93DF93EC01688179818A81D7
:100860009B81611571058105910521F464E279EDA3
:100870008BE597E02DE133EF41E050E00E949604D4
:1008800049015A019B01AC01A7EAB1E40E94B504F9
:100890006B017C01ACEEB4EFA50194010E94C3048E
:1008A000DC01CB018C0D9D1DAE1DBF1DB7FF03C02C
:1008B0000197A109B04888839983AA83BB839F7756
:1008C000DF91CF91FF90EF90DF90CF90BF90AF90EE
:1008D0009F908F9008950E942204089580E690E0F2
:1008E0000E9422040895A0E0B0E0809360009093FD
:1008F0006100A0936200B09363000895FB01DC01E6
:1009000004C08D910190801921F441505040C8F7E6
:10091000881B990B0895FB01DC010D900020E9F77D
:10092000119701900D920020E1F70895052E97FB95
:100930001EF400940E94AD0457FD07D00E94C80425
:1009400007FC03D04EF40C94AD04509540953095BF
:1009500021953F4F4F4F5F4F08959095809570952B
:1009600061957F4F8F4F9F4F08950E94EA04A59F86
:10097000900DB49F900DA49F800D911D112408959A
:10098000B7FF0C94B5040E94B504821B930B089525
:10099000A1E21A2EAA1BBB1BFD010DC0AA1FBB1F83
:1009A000EE1FFF1FA217B307E407F50720F0A21BF5
:1009B000B30BE40BF50B661F771F881F991F1A9462
:1009C00069F760957095809590959B01AC01BD018C
:1009D000CF010895A29FB001B39FC001A39F700DE6
:1009E000811D1124911DB29F700D811D1124911D37
:0609F0000895F894FFCF0A
:1009F60001000000363730310032353038393900E1
:100A06000A1F1F1F1F0E0400041F11111111111FB1
:100A1600041F111111111F1F041F1111111F1F1F78
:100A2600041F11111F1F1F1F041F111F1F1F1F1F30
:100A3600041F1F1F1F1F1F1F00000101050515159D
:100A460030313233343536373839414243444546FE
:100A560000323730310033313031414130300037E8
:100A66003130314141303000374633313335003291
:100A760037303200363730320037463237333500BA
:00000001FF
